{
  "_format": "hh-sol-artifact-1",
  "contractName": "Upload",
  "sourceName": "contracts/Upload.sol",
  "abi": [
    {
      "inputs": [
        {
          "internalType": "address",
          "name": "",
          "type": "address"
        },
        {
          "internalType": "uint256",
          "name": "",
          "type": "uint256"
        }
      ],
      "name": "accessList",
      "outputs": [
        {
          "internalType": "address",
          "name": "user",
          "type": "address"
        },
        {
          "internalType": "bool",
          "name": "access",
          "type": "bool"
        }
      ],
      "stateMutability": "view",
      "type": "function"
    },
    {
      "inputs": [
        {
          "internalType": "address",
          "name": "_user",
          "type": "address"
        },
        {
          "internalType": "string",
          "name": "url",
          "type": "string"
        }
      ],
      "name": "add",
      "outputs": [],
      "stateMutability": "nonpayable",
      "type": "function"
    },
    {
      "inputs": [
        {
          "internalType": "address",
          "name": "user",
          "type": "address"
        }
      ],
      "name": "allow",
      "outputs": [],
      "stateMutability": "nonpayable",
      "type": "function"
    },
    {
      "inputs": [
        {
          "internalType": "address",
          "name": "user",
          "type": "address"
        }
      ],
      "name": "disallow",
      "outputs": [],
      "stateMutability": "nonpayable",
      "type": "function"
    },
    {
      "inputs": [
        {
          "internalType": "address",
          "name": "_user",
          "type": "address"
        }
      ],
      "name": "display",
      "outputs": [
        {
          "internalType": "string[]",
          "name": "",
          "type": "string[]"
        }
      ],
      "stateMutability": "view",
      "type": "function"
    },
    {
      "inputs": [],
      "name": "shareAccess",
      "outputs": [
        {
          "components": [
            {
              "internalType": "address",
              "name": "user",
              "type": "address"
            },
            {
              "internalType": "bool",
              "name": "access",
              "type": "bool"
            }
          ],
          "internalType": "struct Upload.Access[]",
          "name": "",
          "type": "tuple[]"
        }
      ],
      "stateMutability": "view",
      "type": "function"
    }
  ],
  "bytecode": "0x608060405234801561001057600080fd5b506112f7806100206000396000f3fe608060405234801561001057600080fd5b50600436106100625760003560e01c806336d6da551461006757806370c2b41914610083578063a9ed9cb8146100b4578063bc8bef81146100d0578063eb39113f146100ee578063ff9913e81461011e575b600080fd5b610081600480360381019061007c9190610d8b565b61013a565b005b61009d60048036038101906100989190610de3565b6101b9565b6040516100ab929190611002565b60405180910390f35b6100ce60048036038101906100c99190610d62565b610223565b005b6100d8610492565b6040516100e5919061104d565b60405180910390f35b61010860048036038101906101039190610d62565b61059b565b604051610115919061102b565b60405180910390f35b61013860048036038101906101339190610d62565b6107b1565b005b6000808473ffffffffffffffffffffffffffffffffffffffff1673ffffffffffffffffffffffffffffffffffffffff1681526020019081526020016000208282909180600181540180825580915050600190039060005260206000200160009091929091929091929091925091906101b3929190610c4b565b50505050565b600260205281600052604060002081815481106101d557600080fd5b90600052602060002001600091509150508060000160009054906101000a900473ffffffffffffffffffffffffffffffffffffffff16908060000160149054906101000a900460ff16905082565b6000600160003373ffffffffffffffffffffffffffffffffffffffff1673ffffffffffffffffffffffffffffffffffffffff16815260200190815260200160002060008373ffffffffffffffffffffffffffffffffffffffff1673ffffffffffffffffffffffffffffffffffffffff16815260200190815260200160002060006101000a81548160ff02191690831515021790555060005b600260003373ffffffffffffffffffffffffffffffffffffffff1673ffffffffffffffffffffffffffffffffffffffff1681526020019081526020016000208054905081101561048e578173ffffffffffffffffffffffffffffffffffffffff16600260003373ffffffffffffffffffffffffffffffffffffffff1673ffffffffffffffffffffffffffffffffffffffff1681526020019081526020016000208281548110610393577f4e487b7100000000000000000000000000000000000000000000000000000000600052603260045260246000fd5b9060005260206000200160000160009054906101000a900473ffffffffffffffffffffffffffffffffffffffff1673ffffffffffffffffffffffffffffffffffffffff16141561047b576001600260003373ffffffffffffffffffffffffffffffffffffffff1673ffffffffffffffffffffffffffffffffffffffff1681526020019081526020016000208281548110610456577f4e487b7100000000000000000000000000000000000000000000000000000000600052603260045260246000fd5b9060005260206000200160000160146101000a81548160ff0219169083151502179055505b8080610486906111db565b9150506102bb565b5050565b6060600260003373ffffffffffffffffffffffffffffffffffffffff1673ffffffffffffffffffffffffffffffffffffffff168152602001908152602001600020805480602002602001604051908101604052809291908181526020016000905b82821015610592578382906000526020600020016040518060400160405290816000820160009054906101000a900473ffffffffffffffffffffffffffffffffffffffff1673ffffffffffffffffffffffffffffffffffffffff1673ffffffffffffffffffffffffffffffffffffffff1681526020016000820160149054906101000a900460ff161515151581525050815260200190600101906104f3565b50505050905090565b60603373ffffffffffffffffffffffffffffffffffffffff168273ffffffffffffffffffffffffffffffffffffffff16148061065d5750600160008373ffffffffffffffffffffffffffffffffffffffff1673ffffffffffffffffffffffffffffffffffffffff16815260200190815260200160002060003373ffffffffffffffffffffffffffffffffffffffff1673ffffffffffffffffffffffffffffffffffffffff16815260200190815260200160002060009054906101000a900460ff165b61069c576040517f08c379a00000000000000000000000000000000000000000000000000000000081526004016106939061106f565b60405180910390fd5b6000808373ffffffffffffffffffffffffffffffffffffffff1673ffffffffffffffffffffffffffffffffffffffff168152602001908152602001600020805480602002602001604051908101604052809291908181526020016000905b828210156107a6578382906000526020600020018054610719906111a9565b80601f0160208091040260200160405190810160405280929190818152602001828054610745906111a9565b80156107925780601f1061076757610100808354040283529160200191610792565b820191906000526020600020905b81548152906001019060200180831161077557829003601f168201915b5050505050815260200190600101906106fa565b505050509050919050565b60018060003373ffffffffffffffffffffffffffffffffffffffff1673ffffffffffffffffffffffffffffffffffffffff16815260200190815260200160002060008373ffffffffffffffffffffffffffffffffffffffff1673ffffffffffffffffffffffffffffffffffffffff16815260200190815260200160002060006101000a81548160ff02191690831515021790555060011515600360003373ffffffffffffffffffffffffffffffffffffffff1673ffffffffffffffffffffffffffffffffffffffff16815260200190815260200160002060008373ffffffffffffffffffffffffffffffffffffffff1673ffffffffffffffffffffffffffffffffffffffff16815260200190815260200160002060009054906101000a900460ff1615151415610ab75760005b600260003373ffffffffffffffffffffffffffffffffffffffff1673ffffffffffffffffffffffffffffffffffffffff16815260200190815260200160002080549050811015610ab1578173ffffffffffffffffffffffffffffffffffffffff16600260003373ffffffffffffffffffffffffffffffffffffffff1673ffffffffffffffffffffffffffffffffffffffff16815260200190815260200160002082815481106109b6577f4e487b7100000000000000000000000000000000000000000000000000000000600052603260045260246000fd5b9060005260206000200160000160009054906101000a900473ffffffffffffffffffffffffffffffffffffffff1673ffffffffffffffffffffffffffffffffffffffff161415610a9e576001600260003373ffffffffffffffffffffffffffffffffffffffff1673ffffffffffffffffffffffffffffffffffffffff1681526020019081526020016000208281548110610a79577f4e487b7100000000000000000000000000000000000000000000000000000000600052603260045260246000fd5b9060005260206000200160000160146101000a81548160ff0219169083151502179055505b8080610aa9906111db565b9150506108de565b50610c48565b600260003373ffffffffffffffffffffffffffffffffffffffff1673ffffffffffffffffffffffffffffffffffffffff16815260200190815260200160002060405180604001604052808373ffffffffffffffffffffffffffffffffffffffff168152602001600115158152509080600181540180825580915050600190039060005260206000200160009091909190915060008201518160000160006101000a81548173ffffffffffffffffffffffffffffffffffffffff021916908373ffffffffffffffffffffffffffffffffffffffff16021790555060208201518160000160146101000a81548160ff02191690831515021790555050506001600360003373ffffffffffffffffffffffffffffffffffffffff1673ffffffffffffffffffffffffffffffffffffffff16815260200190815260200160002060008373ffffffffffffffffffffffffffffffffffffffff1673ffffffffffffffffffffffffffffffffffffffff16815260200190815260200160002060006101000a81548160ff0219169083151502179055505b50565b828054610c57906111a9565b90600052602060002090601f016020900481019282610c795760008555610cc0565b82601f10610c9257803560ff1916838001178555610cc0565b82800160010185558215610cc0579182015b82811115610cbf578235825591602001919060010190610ca4565b5b509050610ccd9190610cd1565b5090565b5b80821115610cea576000816000905550600101610cd2565b5090565b600081359050610cfd81611293565b92915050565b60008083601f840112610d1557600080fd5b8235905067ffffffffffffffff811115610d2e57600080fd5b602083019150836001820283011115610d4657600080fd5b9250929050565b600081359050610d5c816112aa565b92915050565b600060208284031215610d7457600080fd5b6000610d8284828501610cee565b91505092915050565b600080600060408486031215610da057600080fd5b6000610dae86828701610cee565b935050602084013567ffffffffffffffff811115610dcb57600080fd5b610dd786828701610d03565b92509250509250925092565b60008060408385031215610df657600080fd5b6000610e0485828601610cee565b9250506020610e1585828601610d4d565b9150509250929050565b6000610e2b8383610f5a565b905092915050565b6000610e3f8383610fd3565b60408301905092915050565b610e548161112e565b82525050565b610e638161112e565b82525050565b6000610e74826110af565b610e7e81856110ea565b935083602082028501610e908561108f565b8060005b85811015610ecc5784840389528151610ead8582610e1f565b9450610eb8836110d0565b925060208a01995050600181019050610e94565b50829750879550505050505092915050565b6000610ee9826110ba565b610ef381856110fb565b9350610efe8361109f565b8060005b83811015610f2f578151610f168882610e33565b9750610f21836110dd565b925050600181019050610f02565b5085935050505092915050565b610f4581611140565b82525050565b610f5481611140565b82525050565b6000610f65826110c5565b610f6f818561110c565b9350610f7f818560208601611176565b610f8881611282565b840191505092915050565b6000610fa060158361111d565b91507f596f7520646f6e277420686176652061636365737300000000000000000000006000830152602082019050919050565b604082016000820151610fe96000850182610e4b565b506020820151610ffc6020850182610f3c565b50505050565b60006040820190506110176000830185610e5a565b6110246020830184610f4b565b9392505050565b600060208201905081810360008301526110458184610e69565b905092915050565b600060208201905081810360008301526110678184610ede565b905092915050565b6000602082019050818103600083015261108881610f93565b9050919050565b6000819050602082019050919050565b6000819050602082019050919050565b600081519050919050565b600081519050919050565b600081519050919050565b6000602082019050919050565b6000602082019050919050565b600082825260208201905092915050565b600082825260208201905092915050565b600082825260208201905092915050565b600082825260208201905092915050565b60006111398261114c565b9050919050565b60008115159050919050565b600073ffffffffffffffffffffffffffffffffffffffff82169050919050565b6000819050919050565b60005b83811015611194578082015181840152602081019050611179565b838111156111a3576000848401525b50505050565b600060028204905060018216806111c157607f821691505b602082108114156111d5576111d4611253565b5b50919050565b60006111e68261116c565b91507fffffffffffffffffffffffffffffffffffffffffffffffffffffffffffffffff82141561121957611218611224565b5b600182019050919050565b7f4e487b7100000000000000000000000000000000000000000000000000000000600052601160045260246000fd5b7f4e487b7100000000000000000000000000000000000000000000000000000000600052602260045260246000fd5b6000601f19601f8301169050919050565b61129c8161112e565b81146112a757600080fd5b50565b6112b38161116c565b81146112be57600080fd5b5056fea2646970667358221220517dacb013f937f5013973e42725be8f0dd976dde00a527b5b877572d064a84764736f6c63430008000033",
  "linkReferences": {},
  "deployedLinkReferences": {}
}